{
  "contractName": "supply",
  "abi": [
    {
      "inputs": [],
      "stateMutability": "nonpayable",
      "type": "constructor"
    },
    {
      "inputs": [],
      "name": "admin",
      "outputs": [
        {
          "internalType": "address payable",
          "name": "",
          "type": "address"
        }
      ],
      "stateMutability": "view",
      "type": "function",
      "constant": true
    },
    {
      "inputs": [
        {
          "internalType": "uint256",
          "name": "",
          "type": "uint256"
        }
      ],
      "name": "isWithRetailer",
      "outputs": [
        {
          "internalType": "uint256",
          "name": "ID",
          "type": "uint256"
        },
        {
          "internalType": "string",
          "name": "name",
          "type": "string"
        },
        {
          "internalType": "string",
          "name": "desc",
          "type": "string"
        },
        {
          "internalType": "uint256",
          "name": "price",
          "type": "uint256"
        },
        {
          "internalType": "address",
          "name": "manufacturer",
          "type": "address"
        },
        {
          "internalType": "address",
          "name": "supplier",
          "type": "address"
        },
        {
          "internalType": "bool",
          "name": "isSupplier",
          "type": "bool"
        },
        {
          "internalType": "address",
          "name": "retailer",
          "type": "address"
        },
        {
          "internalType": "bool",
          "name": "isRetailer",
          "type": "bool"
        },
        {
          "internalType": "bool",
          "name": "isSold",
          "type": "bool"
        }
      ],
      "stateMutability": "view",
      "type": "function",
      "constant": true
    },
    {
      "inputs": [
        {
          "internalType": "address",
          "name": "",
          "type": "address"
        }
      ],
      "name": "mapMan",
      "outputs": [
        {
          "internalType": "string",
          "name": "name",
          "type": "string"
        },
        {
          "internalType": "uint256",
          "name": "numOfProdsMade",
          "type": "uint256"
        },
        {
          "internalType": "bool",
          "name": "isMan",
          "type": "bool"
        }
      ],
      "stateMutability": "view",
      "type": "function",
      "constant": true
    },
    {
      "inputs": [
        {
          "internalType": "address",
          "name": "",
          "type": "address"
        }
      ],
      "name": "mapRet",
      "outputs": [
        {
          "internalType": "string",
          "name": "name",
          "type": "string"
        },
        {
          "internalType": "string",
          "name": "desc",
          "type": "string"
        },
        {
          "internalType": "uint256",
          "name": "heldCount",
          "type": "uint256"
        },
        {
          "internalType": "bool",
          "name": "isRet",
          "type": "bool"
        }
      ],
      "stateMutability": "view",
      "type": "function",
      "constant": true
    },
    {
      "inputs": [
        {
          "internalType": "address",
          "name": "",
          "type": "address"
        }
      ],
      "name": "mapSup",
      "outputs": [
        {
          "internalType": "address",
          "name": "addr",
          "type": "address"
        },
        {
          "internalType": "string",
          "name": "name",
          "type": "string"
        },
        {
          "internalType": "uint256",
          "name": "percentCharged",
          "type": "uint256"
        },
        {
          "internalType": "bool",
          "name": "isSup",
          "type": "bool"
        }
      ],
      "stateMutability": "view",
      "type": "function",
      "constant": true
    },
    {
      "inputs": [],
      "name": "prodCount",
      "outputs": [
        {
          "internalType": "uint256",
          "name": "",
          "type": "uint256"
        }
      ],
      "stateMutability": "view",
      "type": "function",
      "constant": true
    },
    {
      "inputs": [
        {
          "internalType": "uint256",
          "name": "",
          "type": "uint256"
        }
      ],
      "name": "prodList",
      "outputs": [
        {
          "internalType": "uint256",
          "name": "ID",
          "type": "uint256"
        },
        {
          "internalType": "string",
          "name": "name",
          "type": "string"
        },
        {
          "internalType": "string",
          "name": "desc",
          "type": "string"
        },
        {
          "internalType": "uint256",
          "name": "price",
          "type": "uint256"
        },
        {
          "internalType": "address",
          "name": "manufacturer",
          "type": "address"
        },
        {
          "internalType": "address",
          "name": "supplier",
          "type": "address"
        },
        {
          "internalType": "bool",
          "name": "isSupplier",
          "type": "bool"
        },
        {
          "internalType": "address",
          "name": "retailer",
          "type": "address"
        },
        {
          "internalType": "bool",
          "name": "isRetailer",
          "type": "bool"
        },
        {
          "internalType": "bool",
          "name": "isSold",
          "type": "bool"
        }
      ],
      "stateMutability": "view",
      "type": "function",
      "constant": true
    },
    {
      "inputs": [],
      "name": "retailedProdCount",
      "outputs": [
        {
          "internalType": "uint256",
          "name": "",
          "type": "uint256"
        }
      ],
      "stateMutability": "view",
      "type": "function",
      "constant": true
    },
    {
      "inputs": [
        {
          "internalType": "uint256",
          "name": "",
          "type": "uint256"
        }
      ],
      "name": "supList",
      "outputs": [
        {
          "internalType": "address",
          "name": "addr",
          "type": "address"
        },
        {
          "internalType": "string",
          "name": "name",
          "type": "string"
        },
        {
          "internalType": "uint256",
          "name": "percentCharged",
          "type": "uint256"
        },
        {
          "internalType": "bool",
          "name": "isSup",
          "type": "bool"
        }
      ],
      "stateMutability": "view",
      "type": "function",
      "constant": true
    },
    {
      "inputs": [],
      "name": "supplyCount",
      "outputs": [
        {
          "internalType": "uint256",
          "name": "",
          "type": "uint256"
        }
      ],
      "stateMutability": "view",
      "type": "function",
      "constant": true
    },
    {
      "inputs": [
        {
          "internalType": "string",
          "name": "name",
          "type": "string"
        }
      ],
      "name": "createMan",
      "outputs": [],
      "stateMutability": "nonpayable",
      "type": "function"
    },
    {
      "inputs": [
        {
          "internalType": "string",
          "name": "name",
          "type": "string"
        },
        {
          "internalType": "string",
          "name": "desc",
          "type": "string"
        },
        {
          "internalType": "uint256",
          "name": "price",
          "type": "uint256"
        }
      ],
      "name": "addProd",
      "outputs": [],
      "stateMutability": "nonpayable",
      "type": "function"
    },
    {
      "inputs": [
        {
          "internalType": "string",
          "name": "name",
          "type": "string"
        },
        {
          "internalType": "uint256",
          "name": "percentCharged",
          "type": "uint256"
        }
      ],
      "name": "createSupplier",
      "outputs": [],
      "stateMutability": "nonpayable",
      "type": "function"
    },
    {
      "inputs": [
        {
          "internalType": "string",
          "name": "name",
          "type": "string"
        },
        {
          "internalType": "string",
          "name": "desc",
          "type": "string"
        }
      ],
      "name": "createRetailer",
      "outputs": [],
      "stateMutability": "nonpayable",
      "type": "function"
    },
    {
      "inputs": [
        {
          "internalType": "uint256",
          "name": "prodID",
          "type": "uint256"
        },
        {
          "internalType": "uint256",
          "name": "supplyID",
          "type": "uint256"
        },
        {
          "internalType": "uint256",
          "name": "retailPrice",
          "type": "uint256"
        }
      ],
      "name": "retBuyProd",
      "outputs": [],
      "stateMutability": "payable",
      "type": "function",
      "payable": true
    },
    {
      "inputs": [
        {
          "internalType": "uint256",
          "name": "prodID",
          "type": "uint256"
        }
      ],
      "name": "buy",
      "outputs": [],
      "stateMutability": "payable",
      "type": "function",
      "payable": true
    },
    {
      "inputs": [],
      "name": "getAllProducts",
      "outputs": [
        {
          "components": [
            {
              "internalType": "uint256",
              "name": "ID",
              "type": "uint256"
            },
            {
              "internalType": "string",
              "name": "name",
              "type": "string"
            },
            {
              "internalType": "string",
              "name": "desc",
              "type": "string"
            },
            {
              "internalType": "uint256",
              "name": "price",
              "type": "uint256"
            },
            {
              "internalType": "address",
              "name": "manufacturer",
              "type": "address"
            },
            {
              "internalType": "address",
              "name": "supplier",
              "type": "address"
            },
            {
              "internalType": "bool",
              "name": "isSupplier",
              "type": "bool"
            },
            {
              "internalType": "address",
              "name": "retailer",
              "type": "address"
            },
            {
              "internalType": "bool",
              "name": "isRetailer",
              "type": "bool"
            },
            {
              "internalType": "bool",
              "name": "isSold",
              "type": "bool"
            }
          ],
          "internalType": "struct supply.prod[]",
          "name": "products",
          "type": "tuple[]"
        }
      ],
      "stateMutability": "view",
      "type": "function",
      "constant": true
    },
    {
      "inputs": [],
      "name": "getAllSuppliers",
      "outputs": [
        {
          "components": [
            {
              "internalType": "address",
              "name": "addr",
              "type": "address"
            },
            {
              "internalType": "string",
              "name": "name",
              "type": "string"
            },
            {
              "internalType": "uint256",
              "name": "percentCharged",
              "type": "uint256"
            },
            {
              "internalType": "bool",
              "name": "isSup",
              "type": "bool"
            }
          ],
          "internalType": "struct supply.supplier[]",
          "name": "suppliers",
          "type": "tuple[]"
        }
      ],
      "stateMutability": "view",
      "type": "function",
      "constant": true
    }
  ],
  "bytecode": "0x608060405260006003556000600455600060095534801561001f57600080fd5b50336000806101000a81548173ffffffffffffffffffffffffffffffffffffffff021916908373ffffffffffffffffffffffffffffffffffffffff1602179055506136278061006f6000396000f3fe6080604052600436106101095760003560e01c8063a79fe1a011610095578063d96a094a11610064578063d96a094a146103a9578063e044d9fd146103c5578063eb9fea3b14610405578063ee09688314610430578063f851a4401461044c57610109565b8063a79fe1a0146102ec578063b53305dc14610315578063c46c51aa14610340578063d30097b61461036957610109565b80635f843e36116100dc5780635f843e36146101d35780636043a4371461021257806374a35384146102585780639a5b0def146102815780639efbdafb146102ac57610109565b8063017e19a31461010e57806302ee3a5214610139578063507ed3d414610164578063522cb1801461018d575b600080fd5b34801561011a57600080fd5b50610123610477565b60405161013091906131d8565b60405180910390f35b34801561014557600080fd5b5061014e61047d565b60405161015b9190613023565b60405180910390f35b34801561017057600080fd5b5061018b600480360381019061018691906129af565b61080f565b005b34801561019957600080fd5b506101b460048036038101906101af9190612a07565b610ab7565b6040516101ca9a999897969594939291906131f3565b60405180910390f35b3480156101df57600080fd5b506101fa60048036038101906101f59190612843565b610ca2565b604051610209939291906130ba565b60405180910390f35b34801561021e57600080fd5b5061023960048036038101906102349190612a07565b610d61565b60405161024f9a999897969594939291906131f3565b60405180910390f35b34801561026457600080fd5b5061027f600480360381019061027a91906128b1565b610f4c565b005b34801561028d57600080fd5b5061029661136f565b6040516102a391906131d8565b60405180910390f35b3480156102b857600080fd5b506102d360048036038101906102ce9190612843565b611375565b6040516102e39493929190613067565b60405180910390f35b3480156102f857600080fd5b50610313600480360381019061030e919061286c565b6114c2565b005b34801561032157600080fd5b5061032a6115d5565b6040516103379190613045565b60405180910390f35b34801561034c57600080fd5b5061036760048036038101906103629190612926565b6117e8565b005b34801561037557600080fd5b50610390600480360381019061038b9190612843565b611c32565b6040516103a09493929190612fd7565b60405180910390f35b6103c360048036038101906103be9190612a07565b611d17565b005b3480156103d157600080fd5b506103ec60048036038101906103e79190612a07565b611e69565b6040516103fc9493929190612fd7565b60405180910390f35b34801561041157600080fd5b5061041a611f4e565b60405161042791906131d8565b60405180910390f35b61044a60048036038101906104459190612a30565b611f54565b005b34801561045857600080fd5b5061046161251a565b60405161046e9190612fbc565b60405180910390f35b60035481565b606060035467ffffffffffffffff8111156104c1577f4e487b7100000000000000000000000000000000000000000000000000000000600052604160045260246000fd5b6040519080825280602002602001820160405280156104fa57816020015b6104e761253e565b8152602001906001900390816104df5790505b50905060005b60035481101561080b57600260008281526020019081526020016000206040518061014001604052908160008201548152602001600182018054610543906134aa565b80601f016020809104026020016040519081016040528092919081815260200182805461056f906134aa565b80156105bc5780601f10610591576101008083540402835291602001916105bc565b820191906000526020600020905b81548152906001019060200180831161059f57829003601f168201915b505050505081526020016002820180546105d5906134aa565b80601f0160208091040260200160405190810160405280929190818152602001828054610601906134aa565b801561064e5780601f106106235761010080835404028352916020019161064e565b820191906000526020600020905b81548152906001019060200180831161063157829003601f168201915b50505050508152602001600382015481526020016004820160009054906101000a900473ffffffffffffffffffffffffffffffffffffffff1673ffffffffffffffffffffffffffffffffffffffff1673ffffffffffffffffffffffffffffffffffffffff1681526020016005820160009054906101000a900473ffffffffffffffffffffffffffffffffffffffff1673ffffffffffffffffffffffffffffffffffffffff1673ffffffffffffffffffffffffffffffffffffffff1681526020016005820160149054906101000a900460ff161515151581526020016006820160009054906101000a900473ffffffffffffffffffffffffffffffffffffffff1673ffffffffffffffffffffffffffffffffffffffff1673ffffffffffffffffffffffffffffffffffffffff1681526020016006820160149054906101000a900460ff161515151581526020016006820160159054906101000a900460ff1615151515815250508282815181106107ed577f4e487b7100000000000000000000000000000000000000000000000000000000600052603260045260246000fd5b60200260200101819052508080610803906134dc565b915050610500565b5090565b600560003373ffffffffffffffffffffffffffffffffffffffff1673ffffffffffffffffffffffffffffffffffffffff16815260200190815260200160002060030160009054906101000a900460ff161561089f576040517f08c379a000000000000000000000000000000000000000000000000000000000815260040161089690613158565b60405180910390fd5b600060405180608001604052803373ffffffffffffffffffffffffffffffffffffffff16815260200185858080601f016020809104026020016040519081016040528093929190818152602001838380828437600081840152601f19601f82011690508083019250505050505050815260200183815260200160011515815250905080600560003373ffffffffffffffffffffffffffffffffffffffff1673ffffffffffffffffffffffffffffffffffffffff16815260200190815260200160002060008201518160000160006101000a81548173ffffffffffffffffffffffffffffffffffffffff021916908373ffffffffffffffffffffffffffffffffffffffff16021790555060208201518160010190805190602001906109c49291906125d9565b506040820151816002015560608201518160030160006101000a81548160ff0219169083151502179055509050508060066000600454815260200190815260200160002060008201518160000160006101000a81548173ffffffffffffffffffffffffffffffffffffffff021916908373ffffffffffffffffffffffffffffffffffffffff1602179055506020820151816001019080519060200190610a6b9291906125d9565b506040820151816002015560608201518160030160006101000a81548160ff02191690831515021790555090505060046000815480929190610aac906134dc565b919050555050505050565b6002602052806000526040600020600091509050806000015490806001018054610ae0906134aa565b80601f0160208091040260200160405190810160405280929190818152602001828054610b0c906134aa565b8015610b595780601f10610b2e57610100808354040283529160200191610b59565b820191906000526020600020905b815481529060010190602001808311610b3c57829003601f168201915b505050505090806002018054610b6e906134aa565b80601f0160208091040260200160405190810160405280929190818152602001828054610b9a906134aa565b8015610be75780601f10610bbc57610100808354040283529160200191610be7565b820191906000526020600020905b815481529060010190602001808311610bca57829003601f168201915b5050505050908060030154908060040160009054906101000a900473ffffffffffffffffffffffffffffffffffffffff16908060050160009054906101000a900473ffffffffffffffffffffffffffffffffffffffff16908060050160149054906101000a900460ff16908060060160009054906101000a900473ffffffffffffffffffffffffffffffffffffffff16908060060160149054906101000a900460ff16908060060160159054906101000a900460ff1690508a565b6001602052806000526040600020600091509050806000018054610cc5906134aa565b80601f0160208091040260200160405190810160405280929190818152602001828054610cf1906134aa565b8015610d3e5780601f10610d1357610100808354040283529160200191610d3e565b820191906000526020600020905b815481529060010190602001808311610d2157829003601f168201915b5050505050908060010154908060020160009054906101000a900460ff16905083565b6008602052806000526040600020600091509050806000015490806001018054610d8a906134aa565b80601f0160208091040260200160405190810160405280929190818152602001828054610db6906134aa565b8015610e035780601f10610dd857610100808354040283529160200191610e03565b820191906000526020600020905b815481529060010190602001808311610de657829003601f168201915b505050505090806002018054610e18906134aa565b80601f0160208091040260200160405190810160405280929190818152602001828054610e44906134aa565b8015610e915780601f10610e6657610100808354040283529160200191610e91565b820191906000526020600020905b815481529060010190602001808311610e7457829003601f168201915b5050505050908060030154908060040160009054906101000a900473ffffffffffffffffffffffffffffffffffffffff16908060050160009054906101000a900473ffffffffffffffffffffffffffffffffffffffff16908060050160149054906101000a900460ff16908060060160009054906101000a900473ffffffffffffffffffffffffffffffffffffffff16908060060160149054906101000a900460ff16908060060160159054906101000a900460ff1690508a565b600760003373ffffffffffffffffffffffffffffffffffffffff1673ffffffffffffffffffffffffffffffffffffffff16815260200190815260200160002060040160009054906101000a900460ff1615610fdc576040517f08c379a0000000000000000000000000000000000000000000000000000000008152600401610fd390613178565b60405180910390fd5b6000600760003373ffffffffffffffffffffffffffffffffffffffff1673ffffffffffffffffffffffffffffffffffffffff1681526020019081526020016000209050848482600001919061103292919061265f565b50828282600101919061104692919061265f565b506001816003018190555060018160040160006101000a81548160ff021916908315150217905550604051806101400160405280600081526020016040518060400160405280600381526020017f44554d000000000000000000000000000000000000000000000000000000000081525081526020016040518060400160405280600381526020017f44554d000000000000000000000000000000000000000000000000000000000081525081526020016000815260200160008054906101000a900473ffffffffffffffffffffffffffffffffffffffff1673ffffffffffffffffffffffffffffffffffffffff16815260200160008054906101000a900473ffffffffffffffffffffffffffffffffffffffff1673ffffffffffffffffffffffffffffffffffffffff16815260200160001515815260200160008054906101000a900473ffffffffffffffffffffffffffffffffffffffff1673ffffffffffffffffffffffffffffffffffffffff168152602001600015158152602001600015158152508160020160008081526020019081526020016000206000820151816000015560208201518160010190805190602001906112069291906125d9565b5060408201518160020190805190602001906112239291906125d9565b506060820151816003015560808201518160040160006101000a81548173ffffffffffffffffffffffffffffffffffffffff021916908373ffffffffffffffffffffffffffffffffffffffff16021790555060a08201518160050160006101000a81548173ffffffffffffffffffffffffffffffffffffffff021916908373ffffffffffffffffffffffffffffffffffffffff16021790555060c08201518160050160146101000a81548160ff02191690831515021790555060e08201518160060160006101000a81548173ffffffffffffffffffffffffffffffffffffffff021916908373ffffffffffffffffffffffffffffffffffffffff1602179055506101008201518160060160146101000a81548160ff0219169083151502179055506101208201518160060160156101000a81548160ff0219169083151502179055509050505050505050565b60095481565b6007602052806000526040600020600091509050806000018054611398906134aa565b80601f01602080910402602001604051908101604052809291908181526020018280546113c4906134aa565b80156114115780601f106113e657610100808354040283529160200191611411565b820191906000526020600020905b8154815290600101906020018083116113f457829003601f168201915b505050505090806001018054611426906134aa565b80601f0160208091040260200160405190810160405280929190818152602001828054611452906134aa565b801561149f5780601f106114745761010080835404028352916020019161149f565b820191906000526020600020905b81548152906001019060200180831161148257829003601f168201915b5050505050908060030154908060040160009054906101000a900460ff16905084565b600160003373ffffffffffffffffffffffffffffffffffffffff1673ffffffffffffffffffffffffffffffffffffffff16815260200190815260200160002060020160009054906101000a900460ff1615611552576040517f08c379a0000000000000000000000000000000000000000000000000000000008152600401611549906131b8565b60405180910390fd5b6000600160003373ffffffffffffffffffffffffffffffffffffffff1673ffffffffffffffffffffffffffffffffffffffff168152602001908152602001600020905082828260000191906115a892919061265f565b506000816001018190555060018160020160006101000a81548160ff021916908315150217905550505050565b606060045467ffffffffffffffff811115611619577f4e487b7100000000000000000000000000000000000000000000000000000000600052604160045260246000fd5b60405190808252806020026020018201604052801561165257816020015b61163f6126e5565b8152602001906001900390816116375790505b50905060005b6004548110156117e457600660008281526020019081526020016000206040518060800160405290816000820160009054906101000a900473ffffffffffffffffffffffffffffffffffffffff1673ffffffffffffffffffffffffffffffffffffffff1673ffffffffffffffffffffffffffffffffffffffff1681526020016001820180546116e6906134aa565b80601f0160208091040260200160405190810160405280929190818152602001828054611712906134aa565b801561175f5780601f106117345761010080835404028352916020019161175f565b820191906000526020600020905b81548152906001019060200180831161174257829003601f168201915b50505050508152602001600282015481526020016003820160009054906101000a900460ff1615151515815250508282815181106117c6577f4e487b7100000000000000000000000000000000000000000000000000000000600052603260045260246000fd5b602002602001018190525080806117dc906134dc565b915050611658565b5090565b600160003373ffffffffffffffffffffffffffffffffffffffff1673ffffffffffffffffffffffffffffffffffffffff16815260200190815260200160002060020160009054906101000a900460ff16611877576040517f08c379a000000000000000000000000000000000000000000000000000000000815260040161186e90613118565b60405180910390fd5b6000600160003373ffffffffffffffffffffffffffffffffffffffff1673ffffffffffffffffffffffffffffffffffffffff168152602001908152602001600020600101549050600081905060405180610140016040528082815260200188888080601f016020809104026020016040519081016040528093929190818152602001838380828437600081840152601f19601f82011690508083019250505050505050815260200186868080601f016020809104026020016040519081016040528093929190818152602001838380828437600081840152601f19601f8201169050808301925050505050505081526020018481526020013373ffffffffffffffffffffffffffffffffffffffff16815260200160008054906101000a900473ffffffffffffffffffffffffffffffffffffffff1673ffffffffffffffffffffffffffffffffffffffff16815260200160001515815260200160008054906101000a900473ffffffffffffffffffffffffffffffffffffffff1673ffffffffffffffffffffffffffffffffffffffff16815260200160001515815260200160001515815250600260006003548152602001908152602001600020600082015181600001556020820151816001019080519060200190611a579291906125d9565b506040820151816002019080519060200190611a749291906125d9565b506060820151816003015560808201518160040160006101000a81548173ffffffffffffffffffffffffffffffffffffffff021916908373ffffffffffffffffffffffffffffffffffffffff16021790555060a08201518160050160006101000a81548173ffffffffffffffffffffffffffffffffffffffff021916908373ffffffffffffffffffffffffffffffffffffffff16021790555060c08201518160050160146101000a81548160ff02191690831515021790555060e08201518160060160006101000a81548173ffffffffffffffffffffffffffffffffffffffff021916908373ffffffffffffffffffffffffffffffffffffffff1602179055506101008201518160060160146101000a81548160ff0219169083151502179055506101208201518160060160156101000a81548160ff02191690831515021790555090505060036000815480929190611bcc906134dc565b9190505550600160003373ffffffffffffffffffffffffffffffffffffffff1673ffffffffffffffffffffffffffffffffffffffff1681526020019081526020016000206001016000815480929190611c24906134dc565b919050555050505050505050565b60056020528060005260406000206000915090508060000160009054906101000a900473ffffffffffffffffffffffffffffffffffffffff1690806001018054611c7b906134aa565b80601f0160208091040260200160405190810160405280929190818152602001828054611ca7906134aa565b8015611cf45780601f10611cc957610100808354040283529160200191611cf4565b820191906000526020600020905b815481529060010190602001808311611cd757829003601f168201915b5050505050908060020154908060030160009054906101000a900460ff16905084565b60006008600083815260200190815260200160002090506002600083815260200190815260200160002060060160159054906101000a900460ff1615611d92576040517f08c379a0000000000000000000000000000000000000000000000000000000008152600401611d89906130f8565b60405180910390fd5b3481600301541115611dd9576040517f08c379a0000000000000000000000000000000000000000000000000000000008152600401611dd090613138565b60405180910390fd5b8060060160009054906101000a900473ffffffffffffffffffffffffffffffffffffffff1673ffffffffffffffffffffffffffffffffffffffff166108fc82600301549081150290604051600060405180830381858888f19350505050158015611e47573d6000803e3d6000fd5b5060018160060160156101000a81548160ff0219169083151502179055505050565b60066020528060005260406000206000915090508060000160009054906101000a900473ffffffffffffffffffffffffffffffffffffffff1690806001018054611eb2906134aa565b80601f0160208091040260200160405190810160405280929190818152602001828054611ede906134aa565b8015611f2b5780601f10611f0057610100808354040283529160200191611f2b565b820191906000526020600020905b815481529060010190602001808311611f0e57829003601f168201915b5050505050908060020154908060030160009054906101000a900460ff16905084565b60045481565b6002600084815260200190815260200160002060060160159054906101000a900460ff1615611fb8576040517f08c379a0000000000000000000000000000000000000000000000000000000008152600401611faf906130f8565b60405180910390fd5b600760003373ffffffffffffffffffffffffffffffffffffffff1673ffffffffffffffffffffffffffffffffffffffff16815260200190815260200160002060040160009054906101000a900460ff16612047576040517f08c379a000000000000000000000000000000000000000000000000000000000815260040161203e90613198565b60405180910390fd5b60006002600085815260200190815260200160002090506000600660008581526020019081526020016000209050600060648260020154846003015461208d91906133c3565b6120979190613392565b83600301546120a6919061333c565b9050348111156120eb576040517f08c379a00000000000000000000000000000000000000000000000000000000081526004016120e290613138565b60405180910390fd5b8260040160009054906101000a900473ffffffffffffffffffffffffffffffffffffffff1673ffffffffffffffffffffffffffffffffffffffff166108fc84600301549081150290604051600060405180830381858888f19350505050158015612159573d6000803e3d6000fd5b508160000160009054906101000a900473ffffffffffffffffffffffffffffffffffffffff1673ffffffffffffffffffffffffffffffffffffffff166108fc6064846002015486600301546121ae91906133c3565b6121b89190613392565b9081150290604051600060405180830381858888f193505050501580156121e3573d6000803e3d6000fd5b508160000160009054906101000a900473ffffffffffffffffffffffffffffffffffffffff168360050160006101000a81548173ffffffffffffffffffffffffffffffffffffffff021916908373ffffffffffffffffffffffffffffffffffffffff16021790555060018360050160146101000a81548160ff021916908315150217905550338360060160006101000a81548173ffffffffffffffffffffffffffffffffffffffff021916908373ffffffffffffffffffffffffffffffffffffffff16021790555060018360060160146101000a81548160ff02191690831515021790555083836003018190555082600860006009548152602001908152602001600020600082015481600001556001820181600101908054612305906134aa565b612310929190612725565b506002820181600201908054612325906134aa565b612330929190612725565b50600382015481600301556004820160009054906101000a900473ffffffffffffffffffffffffffffffffffffffff168160040160006101000a81548173ffffffffffffffffffffffffffffffffffffffff021916908373ffffffffffffffffffffffffffffffffffffffff1602179055506005820160009054906101000a900473ffffffffffffffffffffffffffffffffffffffff168160050160006101000a81548173ffffffffffffffffffffffffffffffffffffffff021916908373ffffffffffffffffffffffffffffffffffffffff1602179055506005820160149054906101000a900460ff168160050160146101000a81548160ff0219169083151502179055506006820160009054906101000a900473ffffffffffffffffffffffffffffffffffffffff168160060160006101000a81548173ffffffffffffffffffffffffffffffffffffffff021916908373ffffffffffffffffffffffffffffffffffffffff1602179055506006820160149054906101000a900460ff168160060160146101000a81548160ff0219169083151502179055506006820160159054906101000a900460ff168160060160156101000a81548160ff0219169083151502179055509050506009600081548092919061250d906134dc565b9190505550505050505050565b60008054906101000a900473ffffffffffffffffffffffffffffffffffffffff1681565b60405180610140016040528060008152602001606081526020016060815260200160008152602001600073ffffffffffffffffffffffffffffffffffffffff168152602001600073ffffffffffffffffffffffffffffffffffffffff168152602001600015158152602001600073ffffffffffffffffffffffffffffffffffffffff1681526020016000151581526020016000151581525090565b8280546125e5906134aa565b90600052602060002090601f016020900481019282612607576000855561264e565b82601f1061262057805160ff191683800117855561264e565b8280016001018555821561264e579182015b8281111561264d578251825591602001919060010190612632565b5b50905061265b91906127b2565b5090565b82805461266b906134aa565b90600052602060002090601f01602090048101928261268d57600085556126d4565b82601f106126a657803560ff19168380011785556126d4565b828001600101855582156126d4579182015b828111156126d35782358255916020019190600101906126b8565b5b5090506126e191906127b2565b5090565b6040518060800160405280600073ffffffffffffffffffffffffffffffffffffffff16815260200160608152602001600081526020016000151581525090565b828054612731906134aa565b90600052602060002090601f01602090048101928261275357600085556127a1565b82601f1061276457805485556127a1565b828001600101855582156127a157600052602060002091601f016020900482015b828111156127a0578254825591600101919060010190612785565b5b5090506127ae91906127b2565b5090565b5b808211156127cb5760008160009055506001016127b3565b5090565b6000813590506127de816135c3565b92915050565b60008083601f8401126127f657600080fd5b8235905067ffffffffffffffff81111561280f57600080fd5b60208301915083600182028301111561282757600080fd5b9250929050565b60008135905061283d816135da565b92915050565b60006020828403121561285557600080fd5b6000612863848285016127cf565b91505092915050565b6000806020838503121561287f57600080fd5b600083013567ffffffffffffffff81111561289957600080fd5b6128a5858286016127e4565b92509250509250929050565b600080600080604085870312156128c757600080fd5b600085013567ffffffffffffffff8111156128e157600080fd5b6128ed878288016127e4565b9450945050602085013567ffffffffffffffff81111561290c57600080fd5b612918878288016127e4565b925092505092959194509250565b60008060008060006060868803121561293e57600080fd5b600086013567ffffffffffffffff81111561295857600080fd5b612964888289016127e4565b9550955050602086013567ffffffffffffffff81111561298357600080fd5b61298f888289016127e4565b935093505060406129a28882890161282e565b9150509295509295909350565b6000806000604084860312156129c457600080fd5b600084013567ffffffffffffffff8111156129de57600080fd5b6129ea868287016127e4565b935093505060206129fd8682870161282e565b9150509250925092565b600060208284031215612a1957600080fd5b6000612a278482850161282e565b91505092915050565b600080600060608486031215612a4557600080fd5b6000612a538682870161282e565b9350506020612a648682870161282e565b9250506040612a758682870161282e565b9150509250925092565b6000612a8b8383612e5a565b905092915050565b6000612a9f8383612f3b565b905092915050565b612ab08161342f565b82525050565b612abf8161341d565b82525050565b612ace8161341d565b82525050565b6000612adf826132bd565b612ae981856132f8565b935083602082028501612afb8561329d565b8060005b85811015612b375784840389528151612b188582612a7f565b9450612b23836132de565b925060208a01995050600181019050612aff565b50829750879550505050505092915050565b6000612b54826132c8565b612b5e8185613309565b935083602082028501612b70856132ad565b8060005b85811015612bac5784840389528151612b8d8582612a93565b9450612b98836132eb565b925060208a01995050600181019050612b74565b50829750879550505050505092915050565b612bc781613441565b82525050565b612bd681613441565b82525050565b6000612be7826132d3565b612bf1818561331a565b9350612c01818560208601613477565b612c0a816135b2565b840191505092915050565b6000612c20826132d3565b612c2a818561332b565b9350612c3a818560208601613477565b612c43816135b2565b840191505092915050565b6000612c5b60238361332b565b91507f50726f6475637420616c726561647920736f6c6420746f206120637573746f6d60008301527f65722100000000000000000000000000000000000000000000000000000000006020830152604082019050919050565b6000612cc1601a8361332b565b91507f55736572206973206e6f742061206d616e7566616374757265720000000000006000830152602082019050919050565b6000612d01601c8361332b565b91507f496e73756666696369656e742077616c6c65742062616c616e636521000000006000830152602082019050919050565b6000612d4160188361332b565b91507f537570706c69657220616c7265616479206578697374732100000000000000006000830152602082019050919050565b6000612d8160188361332b565b91507f52657461696c657220616c7265616479206578697374732100000000000000006000830152602082019050919050565b6000612dc160268361332b565b91507f4f6e6c792072657469616c65722063616e20706572666f726d2074686973206160008301527f6374696f6e2100000000000000000000000000000000000000000000000000006020830152604082019050919050565b6000612e27601c8361332b565b91507f4d616e75666163747572657220616c72656164792065786973747321000000006000830152602082019050919050565b600061014083016000830151612e736000860182612f9e565b5060208301518482036020860152612e8b8282612bdc565b91505060408301518482036040860152612ea58282612bdc565b9150506060830151612eba6060860182612f9e565b506080830151612ecd6080860182612ab6565b5060a0830151612ee060a0860182612ab6565b5060c0830151612ef360c0860182612bbe565b5060e0830151612f0660e0860182612ab6565b50610100830151612f1b610100860182612bbe565b50610120830151612f30610120860182612bbe565b508091505092915050565b6000608083016000830151612f536000860182612ab6565b5060208301518482036020860152612f6b8282612bdc565b9150506040830151612f806040860182612f9e565b506060830151612f936060860182612bbe565b508091505092915050565b612fa78161346d565b82525050565b612fb68161346d565b82525050565b6000602082019050612fd16000830184612aa7565b92915050565b6000608082019050612fec6000830187612ac5565b8181036020830152612ffe8186612c15565b905061300d6040830185612fad565b61301a6060830184612bcd565b95945050505050565b6000602082019050818103600083015261303d8184612ad4565b905092915050565b6000602082019050818103600083015261305f8184612b49565b905092915050565b600060808201905081810360008301526130818187612c15565b905081810360208301526130958186612c15565b90506130a46040830185612fad565b6130b16060830184612bcd565b95945050505050565b600060608201905081810360008301526130d48186612c15565b90506130e36020830185612fad565b6130f06040830184612bcd565b949350505050565b6000602082019050818103600083015261311181612c4e565b9050919050565b6000602082019050818103600083015261313181612cb4565b9050919050565b6000602082019050818103600083015261315181612cf4565b9050919050565b6000602082019050818103600083015261317181612d34565b9050919050565b6000602082019050818103600083015261319181612d74565b9050919050565b600060208201905081810360008301526131b181612db4565b9050919050565b600060208201905081810360008301526131d181612e1a565b9050919050565b60006020820190506131ed6000830184612fad565b92915050565b600061014082019050613209600083018d612fad565b818103602083015261321b818c612c15565b9050818103604083015261322f818b612c15565b905061323e606083018a612fad565b61324b6080830189612ac5565b61325860a0830188612ac5565b61326560c0830187612bcd565b61327260e0830186612ac5565b613280610100830185612bcd565b61328e610120830184612bcd565b9b9a5050505050505050505050565b6000819050602082019050919050565b6000819050602082019050919050565b600081519050919050565b600081519050919050565b600081519050919050565b6000602082019050919050565b6000602082019050919050565b600082825260208201905092915050565b600082825260208201905092915050565b600082825260208201905092915050565b600082825260208201905092915050565b60006133478261346d565b91506133528361346d565b9250827fffffffffffffffffffffffffffffffffffffffffffffffffffffffffffffffff0382111561338757613386613525565b5b828201905092915050565b600061339d8261346d565b91506133a88361346d565b9250826133b8576133b7613554565b5b828204905092915050565b60006133ce8261346d565b91506133d98361346d565b9250817fffffffffffffffffffffffffffffffffffffffffffffffffffffffffffffffff048311821515161561341257613411613525565b5b828202905092915050565b60006134288261344d565b9050919050565b600061343a8261344d565b9050919050565b60008115159050919050565b600073ffffffffffffffffffffffffffffffffffffffff82169050919050565b6000819050919050565b60005b8381101561349557808201518184015260208101905061347a565b838111156134a4576000848401525b50505050565b600060028204905060018216806134c257607f821691505b602082108114156134d6576134d5613583565b5b50919050565b60006134e78261346d565b91507fffffffffffffffffffffffffffffffffffffffffffffffffffffffffffffffff82141561351a57613519613525565b5b600182019050919050565b7f4e487b7100000000000000000000000000000000000000000000000000000000600052601160045260246000fd5b7f4e487b7100000000000000000000000000000000000000000000000000000000600052601260045260246000fd5b7f4e487b7100000000000000000000000000000000000000000000000000000000600052602260045260246000fd5b6000601f19601f8301169050919050565b6135cc8161341d565b81146135d757600080fd5b50565b6135e38161346d565b81146135ee57600080fd5b5056fea264697066735822122034b1857acfb6cca75a59fc14d2b888ad0bead35a9c930e0f5cadab4a990dbd9264736f6c63430008000033",
  "immutableReferences": {},
  "source": "// SPDX-License-Identifier: MIT\npragma solidity ^0.8.0;\n\n// import \"@openzeppelin/contracts/utils/Strings.sol\";\n\ncontract supply {\n    address payable public admin;\n\n    constructor() {\n        admin = payable(msg.sender);\n    }\n\n    struct prod {\n        uint256 ID;\n        string name;\n        string desc;\n        uint256 price;\n        address manufacturer;\n        address supplier;\n        bool isSupplier;\n        address retailer;\n        bool isRetailer;\n        // address currentlyHeldBy;\n        bool isSold;\n    }\n\n    struct man {\n        string name;\n        // mapping(uint256 => prod) prodList;\n        uint256 numOfProdsMade;\n        bool isMan;\n    }\n\n    mapping(address => man) public mapMan;\n    mapping(uint256 => prod) public prodList;\n    uint256 public prodCount = 0;\n\n    function createMan(string calldata name) public {\n        require(!mapMan[msg.sender].isMan, \"Manufacturer already exists!\");\n        man storage m = mapMan[msg.sender];\n        m.name = name;\n        m.numOfProdsMade = 0;\n        m.isMan = true;\n\n        // p.prodList[0] = prod(\"NoID\", \"placeholder\", \"noDesc\", 0);\n        // mapMan[msg.sender] = man(name, prod(), 0, true);\n    }\n\n    function addProd(\n        string calldata name,\n        string calldata desc,\n        uint256 price\n    ) public {\n        require(mapMan[msg.sender].isMan, \"User is not a manufacturer\");\n        uint256 prodID = mapMan[msg.sender].numOfProdsMade;\n        // string(abi.encodePacked(msg.sender))\n        uint256 ID = prodID;\n        // mapMan[msg.sender].prodList[prodID] = (prod(ID, name, desc, price));\n        prodList[prodCount] = prod(\n            ID,\n            name,\n            desc,\n            price,\n            msg.sender,\n            admin,\n            false,\n            admin,\n            false,\n            false\n        );\n        prodCount++;\n        mapMan[msg.sender].numOfProdsMade++;\n    }\n\n    struct supplier {\n        address addr;\n        string name;\n        uint256 percentCharged;\n        bool isSup;\n    }\n\n    uint256 public supplyCount = 0;\n    mapping(address => supplier) public mapSup;\n    mapping(uint256 => supplier) public supList;\n\n    function createSupplier(\n        string calldata name,\n        uint256 percentCharged\n    ) public {\n        require(!mapSup[msg.sender].isSup, \"Supplier already exists!\");\n        supplier memory s = supplier(msg.sender, name, percentCharged, true);\n        mapSup[msg.sender] = s;\n        supList[supplyCount] = s;\n        supplyCount++;\n    }\n\n    struct retailer {\n        string name;\n        string desc;\n        mapping(uint256 => prod) prodList;\n        uint256 heldCount;\n        bool isRet;\n    }\n\n    mapping(address => retailer) public mapRet;\n    mapping(uint256 => prod) public isWithRetailer;\n    uint256 public retailedProdCount = 0;\n\n    function createRetailer(string calldata name, string calldata desc) public {\n        require(!mapRet[msg.sender].isRet, \"Retailer already exists!\");\n        retailer storage p = mapRet[msg.sender];\n        p.name = name;\n        p.desc = desc;\n        p.heldCount = 1;\n        p.isRet = true;\n\n        p.prodList[0] = prod(\n            0,\n            \"DUM\",\n            \"DUM\",\n            0,\n            admin,\n            admin,\n            false,\n            admin,\n            false,\n            false\n        );\n    }\n\n    function retBuyProd(\n        uint256 prodID,\n        uint256 supplyID,\n        uint256 retailPrice\n    ) public payable {\n        require(\n            !prodList[prodID].isSold,\n            \"Product already sold to a customer!\"\n        );\n        require(\n            mapRet[msg.sender].isRet,\n            \"Only retialer can perform this action!\"\n        );\n\n        prod storage product = prodList[prodID];\n        supplier storage sup = supList[supplyID];\n\n        uint256 priceForRetailer = product.price +\n            ((product.price * sup.percentCharged) / 100);\n        require(priceForRetailer <= msg.value, \"Insufficient wallet balance!\");\n        payable(product.manufacturer).transfer(product.price);\n        payable(sup.addr).transfer(\n            ((product.price * sup.percentCharged) / 100)\n        );\n        product.supplier = sup.addr;\n        product.isSupplier = true;\n        product.retailer = msg.sender;\n        product.isRetailer = true;\n        // product.currentltyHeldBy = product.retailer;\n        product.price = retailPrice;\n        isWithRetailer[retailedProdCount] = product;\n        retailedProdCount++;\n    }\n\n    function buy(uint prodID) public payable {\n        prod storage product = isWithRetailer[prodID];\n        require(\n            !prodList[prodID].isSold,\n            \"Product already sold to a customer!\"\n        );\n        require(product.price <= msg.value, \"Insufficient wallet balance!\");\n        payable(product.retailer).transfer(product.price);\n        product.isSold = true;\n    }\n\n    function getAllProducts() public view returns (prod[] memory products) {\n        products = new prod[](prodCount);\n\n        for (uint256 i = 0; i < prodCount; i++) {\n            products[i] = prodList[i];\n        }\n\n        return products;\n    }\n\n    function getAllSuppliers()\n        public\n        view\n        returns (supplier[] memory suppliers)\n    {\n        suppliers = new supplier[](supplyCount);\n\n        for (uint256 i = 0; i < supplyCount; i++) {\n            suppliers[i] = supList[i];\n        }\n\n        return suppliers;\n    }\n}\n",
  "sourcePath": "C:\\Users\\sadhu\\Documents\\GitHub\\SupplyCoin\\contracts\\supply.sol",
  "compiler": {
    "name": "solc",
    "version": "0.8.0+commit.c7dfd78e.Emscripten.clang"
  },
  "schemaVersion": "3.4.15",
  "updatedAt": "2023-11-22T20:14:09.275Z",
  "networkType": "ethereum",
  "devdoc": {
    "kind": "dev",
    "methods": {},
    "version": 1
  },
  "userdoc": {
    "kind": "user",
    "methods": {},
    "version": 1
  }
}