{
  "contractName": "supply",
  "abi": [
    {
      "inputs": [],
      "stateMutability": "nonpayable",
      "type": "constructor"
    },
    {
      "inputs": [],
      "name": "admin",
      "outputs": [
        {
          "internalType": "address payable",
          "name": "",
          "type": "address"
        }
      ],
      "stateMutability": "view",
      "type": "function"
    },
    {
      "inputs": [
        {
          "internalType": "uint256",
          "name": "",
          "type": "uint256"
        }
      ],
      "name": "isWithRetailer",
      "outputs": [
        {
          "internalType": "uint256",
          "name": "ID",
          "type": "uint256"
        },
        {
          "internalType": "string",
          "name": "name",
          "type": "string"
        },
        {
          "internalType": "string",
          "name": "desc",
          "type": "string"
        },
        {
          "internalType": "uint256",
          "name": "price",
          "type": "uint256"
        },
        {
          "internalType": "address",
          "name": "manufacturer",
          "type": "address"
        },
        {
          "internalType": "address",
          "name": "supplier",
          "type": "address"
        },
        {
          "internalType": "bool",
          "name": "isSupplier",
          "type": "bool"
        },
        {
          "internalType": "address",
          "name": "retailer",
          "type": "address"
        },
        {
          "internalType": "bool",
          "name": "isRetailer",
          "type": "bool"
        },
        {
          "internalType": "bool",
          "name": "isSold",
          "type": "bool"
        }
      ],
      "stateMutability": "view",
      "type": "function"
    },
    {
      "inputs": [
        {
          "internalType": "address",
          "name": "",
          "type": "address"
        }
      ],
      "name": "mapMan",
      "outputs": [
        {
          "internalType": "string",
          "name": "name",
          "type": "string"
        },
        {
          "internalType": "uint256",
          "name": "numOfProdsMade",
          "type": "uint256"
        },
        {
          "internalType": "bool",
          "name": "isMan",
          "type": "bool"
        }
      ],
      "stateMutability": "view",
      "type": "function"
    },
    {
      "inputs": [
        {
          "internalType": "address",
          "name": "",
          "type": "address"
        }
      ],
      "name": "mapRet",
      "outputs": [
        {
          "internalType": "string",
          "name": "name",
          "type": "string"
        },
        {
          "internalType": "string",
          "name": "desc",
          "type": "string"
        },
        {
          "internalType": "uint256",
          "name": "heldCount",
          "type": "uint256"
        },
        {
          "internalType": "bool",
          "name": "isRet",
          "type": "bool"
        }
      ],
      "stateMutability": "view",
      "type": "function"
    },
    {
      "inputs": [
        {
          "internalType": "address",
          "name": "",
          "type": "address"
        }
      ],
      "name": "mapSup",
      "outputs": [
        {
          "internalType": "address",
          "name": "addr",
          "type": "address"
        },
        {
          "internalType": "string",
          "name": "name",
          "type": "string"
        },
        {
          "internalType": "uint256",
          "name": "percentCharged",
          "type": "uint256"
        },
        {
          "internalType": "bool",
          "name": "isSup",
          "type": "bool"
        }
      ],
      "stateMutability": "view",
      "type": "function"
    },
    {
      "inputs": [],
      "name": "prodCount",
      "outputs": [
        {
          "internalType": "uint256",
          "name": "",
          "type": "uint256"
        }
      ],
      "stateMutability": "view",
      "type": "function"
    },
    {
      "inputs": [
        {
          "internalType": "uint256",
          "name": "",
          "type": "uint256"
        }
      ],
      "name": "prodList",
      "outputs": [
        {
          "internalType": "uint256",
          "name": "ID",
          "type": "uint256"
        },
        {
          "internalType": "string",
          "name": "name",
          "type": "string"
        },
        {
          "internalType": "string",
          "name": "desc",
          "type": "string"
        },
        {
          "internalType": "uint256",
          "name": "price",
          "type": "uint256"
        },
        {
          "internalType": "address",
          "name": "manufacturer",
          "type": "address"
        },
        {
          "internalType": "address",
          "name": "supplier",
          "type": "address"
        },
        {
          "internalType": "bool",
          "name": "isSupplier",
          "type": "bool"
        },
        {
          "internalType": "address",
          "name": "retailer",
          "type": "address"
        },
        {
          "internalType": "bool",
          "name": "isRetailer",
          "type": "bool"
        },
        {
          "internalType": "bool",
          "name": "isSold",
          "type": "bool"
        }
      ],
      "stateMutability": "view",
      "type": "function"
    },
    {
      "inputs": [],
      "name": "retailedProdCount",
      "outputs": [
        {
          "internalType": "uint256",
          "name": "",
          "type": "uint256"
        }
      ],
      "stateMutability": "view",
      "type": "function"
    },
    {
      "inputs": [
        {
          "internalType": "uint256",
          "name": "",
          "type": "uint256"
        }
      ],
      "name": "supList",
      "outputs": [
        {
          "internalType": "address",
          "name": "addr",
          "type": "address"
        },
        {
          "internalType": "string",
          "name": "name",
          "type": "string"
        },
        {
          "internalType": "uint256",
          "name": "percentCharged",
          "type": "uint256"
        },
        {
          "internalType": "bool",
          "name": "isSup",
          "type": "bool"
        }
      ],
      "stateMutability": "view",
      "type": "function"
    },
    {
      "inputs": [],
      "name": "supplyCount",
      "outputs": [
        {
          "internalType": "uint256",
          "name": "",
          "type": "uint256"
        }
      ],
      "stateMutability": "view",
      "type": "function"
    },
    {
      "inputs": [
        {
          "internalType": "string",
          "name": "name",
          "type": "string"
        }
      ],
      "name": "createMan",
      "outputs": [],
      "stateMutability": "nonpayable",
      "type": "function"
    },
    {
      "inputs": [
        {
          "internalType": "string",
          "name": "name",
          "type": "string"
        },
        {
          "internalType": "string",
          "name": "desc",
          "type": "string"
        },
        {
          "internalType": "uint256",
          "name": "price",
          "type": "uint256"
        }
      ],
      "name": "addProd",
      "outputs": [],
      "stateMutability": "nonpayable",
      "type": "function"
    },
    {
      "inputs": [
        {
          "internalType": "string",
          "name": "name",
          "type": "string"
        },
        {
          "internalType": "uint256",
          "name": "percentCharged",
          "type": "uint256"
        }
      ],
      "name": "createSupplier",
      "outputs": [],
      "stateMutability": "nonpayable",
      "type": "function"
    },
    {
      "inputs": [
        {
          "internalType": "string",
          "name": "name",
          "type": "string"
        },
        {
          "internalType": "string",
          "name": "desc",
          "type": "string"
        }
      ],
      "name": "createRetailer",
      "outputs": [],
      "stateMutability": "nonpayable",
      "type": "function"
    },
    {
      "inputs": [
        {
          "internalType": "uint256",
          "name": "prodID",
          "type": "uint256"
        },
        {
          "internalType": "uint256",
          "name": "supplyID",
          "type": "uint256"
        },
        {
          "internalType": "uint256",
          "name": "retailPrice",
          "type": "uint256"
        }
      ],
      "name": "retBuyProd",
      "outputs": [],
      "stateMutability": "payable",
      "type": "function"
    },
    {
      "inputs": [
        {
          "internalType": "uint256",
          "name": "prodID",
          "type": "uint256"
        }
      ],
      "name": "buy",
      "outputs": [],
      "stateMutability": "payable",
      "type": "function"
    }
  ],
  "bytecode": "0x608060405260006003556000600455600060095534801561001f57600080fd5b50336000806101000a81548173ffffffffffffffffffffffffffffffffffffffff021916908373ffffffffffffffffffffffffffffffffffffffff160217905550612bb88061006f6000396000f3fe6080604052600436106100f35760003560e01c8063a79fe1a01161008a578063e044d9fd11610059578063e044d9fd14610359578063eb9fea3b14610399578063ee096883146103c4578063f851a440146103e0576100f3565b8063a79fe1a0146102ab578063c46c51aa146102d4578063d30097b6146102fd578063d96a094a1461033d576100f3565b80636043a437116100c65780636043a437146101d157806374a35384146102175780639a5b0def146102405780639efbdafb1461026b576100f3565b8063017e19a3146100f8578063507ed3d414610123578063522cb1801461014c5780635f843e3614610192575b600080fd5b34801561010457600080fd5b5061010d61040b565b60405161011a91906127ec565b60405180910390f35b34801561012f57600080fd5b5061014a600480360381019061014591906122c3565b610411565b005b34801561015857600080fd5b50610173600480360381019061016e919061231b565b6106b9565b6040516101899a99989796959493929190612807565b60405180910390f35b34801561019e57600080fd5b506101b960048036038101906101b49190612157565b6108a4565b6040516101c8939291906126ce565b60405180910390f35b3480156101dd57600080fd5b506101f860048036038101906101f3919061231b565b610963565b60405161020e9a99989796959493929190612807565b60405180910390f35b34801561022357600080fd5b5061023e600480360381019061023991906121c5565b610b4e565b005b34801561024c57600080fd5b50610255610f71565b60405161026291906127ec565b60405180910390f35b34801561027757600080fd5b50610292600480360381019061028d9190612157565b610f77565b6040516102a2949392919061267b565b60405180910390f35b3480156102b757600080fd5b506102d260048036038101906102cd9190612180565b6110c4565b005b3480156102e057600080fd5b506102fb60048036038101906102f6919061223a565b6111d7565b005b34801561030957600080fd5b50610324600480360381019061031f9190612157565b611621565b604051610334949392919061262f565b60405180910390f35b6103576004803603810190610352919061231b565b611706565b005b34801561036557600080fd5b50610380600480360381019061037b919061231b565b611858565b604051610390949392919061262f565b60405180910390f35b3480156103a557600080fd5b506103ae61193d565b6040516103bb91906127ec565b60405180910390f35b6103de60048036038101906103d99190612344565b611943565b005b3480156103ec57600080fd5b506103f5611f09565b6040516104029190612614565b60405180910390f35b60035481565b600560003373ffffffffffffffffffffffffffffffffffffffff1673ffffffffffffffffffffffffffffffffffffffff16815260200190815260200160002060030160009054906101000a900460ff16156104a1576040517f08c379a00000000000000000000000000000000000000000000000000000000081526004016104989061276c565b60405180910390fd5b600060405180608001604052803373ffffffffffffffffffffffffffffffffffffffff16815260200185858080601f016020809104026020016040519081016040528093929190818152602001838380828437600081840152601f19601f82011690508083019250505050505050815260200183815260200160011515815250905080600560003373ffffffffffffffffffffffffffffffffffffffff1673ffffffffffffffffffffffffffffffffffffffff16815260200190815260200160002060008201518160000160006101000a81548173ffffffffffffffffffffffffffffffffffffffff021916908373ffffffffffffffffffffffffffffffffffffffff16021790555060208201518160010190805190602001906105c6929190611f2d565b506040820151816002015560608201518160030160006101000a81548160ff0219169083151502179055509050508060066000600454815260200190815260200160002060008201518160000160006101000a81548173ffffffffffffffffffffffffffffffffffffffff021916908373ffffffffffffffffffffffffffffffffffffffff160217905550602082015181600101908051906020019061066d929190611f2d565b506040820151816002015560608201518160030160006101000a81548160ff021916908315150217905550905050600460008154809291906106ae90612a6d565b919050555050505050565b60026020528060005260406000206000915090508060000154908060010180546106e290612a3b565b80601f016020809104026020016040519081016040528092919081815260200182805461070e90612a3b565b801561075b5780601f106107305761010080835404028352916020019161075b565b820191906000526020600020905b81548152906001019060200180831161073e57829003601f168201915b50505050509080600201805461077090612a3b565b80601f016020809104026020016040519081016040528092919081815260200182805461079c90612a3b565b80156107e95780601f106107be576101008083540402835291602001916107e9565b820191906000526020600020905b8154815290600101906020018083116107cc57829003601f168201915b5050505050908060030154908060040160009054906101000a900473ffffffffffffffffffffffffffffffffffffffff16908060050160009054906101000a900473ffffffffffffffffffffffffffffffffffffffff16908060050160149054906101000a900460ff16908060060160009054906101000a900473ffffffffffffffffffffffffffffffffffffffff16908060060160149054906101000a900460ff16908060060160159054906101000a900460ff1690508a565b60016020528060005260406000206000915090508060000180546108c790612a3b565b80601f01602080910402602001604051908101604052809291908181526020018280546108f390612a3b565b80156109405780601f1061091557610100808354040283529160200191610940565b820191906000526020600020905b81548152906001019060200180831161092357829003601f168201915b5050505050908060010154908060020160009054906101000a900460ff16905083565b600860205280600052604060002060009150905080600001549080600101805461098c90612a3b565b80601f01602080910402602001604051908101604052809291908181526020018280546109b890612a3b565b8015610a055780601f106109da57610100808354040283529160200191610a05565b820191906000526020600020905b8154815290600101906020018083116109e857829003601f168201915b505050505090806002018054610a1a90612a3b565b80601f0160208091040260200160405190810160405280929190818152602001828054610a4690612a3b565b8015610a935780601f10610a6857610100808354040283529160200191610a93565b820191906000526020600020905b815481529060010190602001808311610a7657829003601f168201915b5050505050908060030154908060040160009054906101000a900473ffffffffffffffffffffffffffffffffffffffff16908060050160009054906101000a900473ffffffffffffffffffffffffffffffffffffffff16908060050160149054906101000a900460ff16908060060160009054906101000a900473ffffffffffffffffffffffffffffffffffffffff16908060060160149054906101000a900460ff16908060060160159054906101000a900460ff1690508a565b600760003373ffffffffffffffffffffffffffffffffffffffff1673ffffffffffffffffffffffffffffffffffffffff16815260200190815260200160002060040160009054906101000a900460ff1615610bde576040517f08c379a0000000000000000000000000000000000000000000000000000000008152600401610bd59061278c565b60405180910390fd5b6000600760003373ffffffffffffffffffffffffffffffffffffffff1673ffffffffffffffffffffffffffffffffffffffff16815260200190815260200160002090508484826000019190610c34929190611fb3565b508282826001019190610c48929190611fb3565b506001816003018190555060018160040160006101000a81548160ff021916908315150217905550604051806101400160405280600081526020016040518060400160405280600381526020017f44554d000000000000000000000000000000000000000000000000000000000081525081526020016040518060400160405280600381526020017f44554d000000000000000000000000000000000000000000000000000000000081525081526020016000815260200160008054906101000a900473ffffffffffffffffffffffffffffffffffffffff1673ffffffffffffffffffffffffffffffffffffffff16815260200160008054906101000a900473ffffffffffffffffffffffffffffffffffffffff1673ffffffffffffffffffffffffffffffffffffffff16815260200160001515815260200160008054906101000a900473ffffffffffffffffffffffffffffffffffffffff1673ffffffffffffffffffffffffffffffffffffffff16815260200160001515815260200160001515815250816002016000808152602001908152602001600020600082015181600001556020820151816001019080519060200190610e08929190611f2d565b506040820151816002019080519060200190610e25929190611f2d565b506060820151816003015560808201518160040160006101000a81548173ffffffffffffffffffffffffffffffffffffffff021916908373ffffffffffffffffffffffffffffffffffffffff16021790555060a08201518160050160006101000a81548173ffffffffffffffffffffffffffffffffffffffff021916908373ffffffffffffffffffffffffffffffffffffffff16021790555060c08201518160050160146101000a81548160ff02191690831515021790555060e08201518160060160006101000a81548173ffffffffffffffffffffffffffffffffffffffff021916908373ffffffffffffffffffffffffffffffffffffffff1602179055506101008201518160060160146101000a81548160ff0219169083151502179055506101208201518160060160156101000a81548160ff0219169083151502179055509050505050505050565b60095481565b6007602052806000526040600020600091509050806000018054610f9a90612a3b565b80601f0160208091040260200160405190810160405280929190818152602001828054610fc690612a3b565b80156110135780601f10610fe857610100808354040283529160200191611013565b820191906000526020600020905b815481529060010190602001808311610ff657829003601f168201915b50505050509080600101805461102890612a3b565b80601f016020809104026020016040519081016040528092919081815260200182805461105490612a3b565b80156110a15780601f10611076576101008083540402835291602001916110a1565b820191906000526020600020905b81548152906001019060200180831161108457829003601f168201915b5050505050908060030154908060040160009054906101000a900460ff16905084565b600160003373ffffffffffffffffffffffffffffffffffffffff1673ffffffffffffffffffffffffffffffffffffffff16815260200190815260200160002060020160009054906101000a900460ff1615611154576040517f08c379a000000000000000000000000000000000000000000000000000000000815260040161114b906127cc565b60405180910390fd5b6000600160003373ffffffffffffffffffffffffffffffffffffffff1673ffffffffffffffffffffffffffffffffffffffff168152602001908152602001600020905082828260000191906111aa929190611fb3565b506000816001018190555060018160020160006101000a81548160ff021916908315150217905550505050565b600160003373ffffffffffffffffffffffffffffffffffffffff1673ffffffffffffffffffffffffffffffffffffffff16815260200190815260200160002060020160009054906101000a900460ff16611266576040517f08c379a000000000000000000000000000000000000000000000000000000000815260040161125d9061272c565b60405180910390fd5b6000600160003373ffffffffffffffffffffffffffffffffffffffff1673ffffffffffffffffffffffffffffffffffffffff168152602001908152602001600020600101549050600081905060405180610140016040528082815260200188888080601f016020809104026020016040519081016040528093929190818152602001838380828437600081840152601f19601f82011690508083019250505050505050815260200186868080601f016020809104026020016040519081016040528093929190818152602001838380828437600081840152601f19601f8201169050808301925050505050505081526020018481526020013373ffffffffffffffffffffffffffffffffffffffff16815260200160008054906101000a900473ffffffffffffffffffffffffffffffffffffffff1673ffffffffffffffffffffffffffffffffffffffff16815260200160001515815260200160008054906101000a900473ffffffffffffffffffffffffffffffffffffffff1673ffffffffffffffffffffffffffffffffffffffff16815260200160001515815260200160001515815250600260006003548152602001908152602001600020600082015181600001556020820151816001019080519060200190611446929190611f2d565b506040820151816002019080519060200190611463929190611f2d565b506060820151816003015560808201518160040160006101000a81548173ffffffffffffffffffffffffffffffffffffffff021916908373ffffffffffffffffffffffffffffffffffffffff16021790555060a08201518160050160006101000a81548173ffffffffffffffffffffffffffffffffffffffff021916908373ffffffffffffffffffffffffffffffffffffffff16021790555060c08201518160050160146101000a81548160ff02191690831515021790555060e08201518160060160006101000a81548173ffffffffffffffffffffffffffffffffffffffff021916908373ffffffffffffffffffffffffffffffffffffffff1602179055506101008201518160060160146101000a81548160ff0219169083151502179055506101208201518160060160156101000a81548160ff021916908315150217905550905050600360008154809291906115bb90612a6d565b9190505550600160003373ffffffffffffffffffffffffffffffffffffffff1673ffffffffffffffffffffffffffffffffffffffff168152602001908152602001600020600101600081548092919061161390612a6d565b919050555050505050505050565b60056020528060005260406000206000915090508060000160009054906101000a900473ffffffffffffffffffffffffffffffffffffffff169080600101805461166a90612a3b565b80601f016020809104026020016040519081016040528092919081815260200182805461169690612a3b565b80156116e35780601f106116b8576101008083540402835291602001916116e3565b820191906000526020600020905b8154815290600101906020018083116116c657829003601f168201915b5050505050908060020154908060030160009054906101000a900460ff16905084565b60006008600083815260200190815260200160002090506002600083815260200190815260200160002060060160159054906101000a900460ff1615611781576040517f08c379a00000000000000000000000000000000000000000000000000000000081526004016117789061270c565b60405180910390fd5b34816003015411156117c8576040517f08c379a00000000000000000000000000000000000000000000000000000000081526004016117bf9061274c565b60405180910390fd5b8060060160009054906101000a900473ffffffffffffffffffffffffffffffffffffffff1673ffffffffffffffffffffffffffffffffffffffff166108fc82600301549081150290604051600060405180830381858888f19350505050158015611836573d6000803e3d6000fd5b5060018160060160156101000a81548160ff0219169083151502179055505050565b60066020528060005260406000206000915090508060000160009054906101000a900473ffffffffffffffffffffffffffffffffffffffff16908060010180546118a190612a3b565b80601f01602080910402602001604051908101604052809291908181526020018280546118cd90612a3b565b801561191a5780601f106118ef5761010080835404028352916020019161191a565b820191906000526020600020905b8154815290600101906020018083116118fd57829003601f168201915b5050505050908060020154908060030160009054906101000a900460ff16905084565b60045481565b6002600084815260200190815260200160002060060160159054906101000a900460ff16156119a7576040517f08c379a000000000000000000000000000000000000000000000000000000000815260040161199e9061270c565b60405180910390fd5b600760003373ffffffffffffffffffffffffffffffffffffffff1673ffffffffffffffffffffffffffffffffffffffff16815260200190815260200160002060040160009054906101000a900460ff16611a36576040517f08c379a0000000000000000000000000000000000000000000000000000000008152600401611a2d906127ac565b60405180910390fd5b600060026000858152602001908152602001600020905060006006600085815260200190815260200160002090506000606482600201548460030154611a7c9190612954565b611a869190612923565b8360030154611a9591906128cd565b905034811115611ada576040517f08c379a0000000000000000000000000000000000000000000000000000000008152600401611ad19061274c565b60405180910390fd5b8260040160009054906101000a900473ffffffffffffffffffffffffffffffffffffffff1673ffffffffffffffffffffffffffffffffffffffff166108fc84600301549081150290604051600060405180830381858888f19350505050158015611b48573d6000803e3d6000fd5b508160000160009054906101000a900473ffffffffffffffffffffffffffffffffffffffff1673ffffffffffffffffffffffffffffffffffffffff166108fc606484600201548660030154611b9d9190612954565b611ba79190612923565b9081150290604051600060405180830381858888f19350505050158015611bd2573d6000803e3d6000fd5b508160000160009054906101000a900473ffffffffffffffffffffffffffffffffffffffff168360050160006101000a81548173ffffffffffffffffffffffffffffffffffffffff021916908373ffffffffffffffffffffffffffffffffffffffff16021790555060018360050160146101000a81548160ff021916908315150217905550338360060160006101000a81548173ffffffffffffffffffffffffffffffffffffffff021916908373ffffffffffffffffffffffffffffffffffffffff16021790555060018360060160146101000a81548160ff02191690831515021790555083836003018190555082600860006009548152602001908152602001600020600082015481600001556001820181600101908054611cf490612a3b565b611cff929190612039565b506002820181600201908054611d1490612a3b565b611d1f929190612039565b50600382015481600301556004820160009054906101000a900473ffffffffffffffffffffffffffffffffffffffff168160040160006101000a81548173ffffffffffffffffffffffffffffffffffffffff021916908373ffffffffffffffffffffffffffffffffffffffff1602179055506005820160009054906101000a900473ffffffffffffffffffffffffffffffffffffffff168160050160006101000a81548173ffffffffffffffffffffffffffffffffffffffff021916908373ffffffffffffffffffffffffffffffffffffffff1602179055506005820160149054906101000a900460ff168160050160146101000a81548160ff0219169083151502179055506006820160009054906101000a900473ffffffffffffffffffffffffffffffffffffffff168160060160006101000a81548173ffffffffffffffffffffffffffffffffffffffff021916908373ffffffffffffffffffffffffffffffffffffffff1602179055506006820160149054906101000a900460ff168160060160146101000a81548160ff0219169083151502179055506006820160159054906101000a900460ff168160060160156101000a81548160ff02191690831515021790555090505060096000815480929190611efc90612a6d565b9190505550505050505050565b60008054906101000a900473ffffffffffffffffffffffffffffffffffffffff1681565b828054611f3990612a3b565b90600052602060002090601f016020900481019282611f5b5760008555611fa2565b82601f10611f7457805160ff1916838001178555611fa2565b82800160010185558215611fa2579182015b82811115611fa1578251825591602001919060010190611f86565b5b509050611faf91906120c6565b5090565b828054611fbf90612a3b565b90600052602060002090601f016020900481019282611fe15760008555612028565b82601f10611ffa57803560ff1916838001178555612028565b82800160010185558215612028579182015b8281111561202757823582559160200191906001019061200c565b5b50905061203591906120c6565b5090565b82805461204590612a3b565b90600052602060002090601f01602090048101928261206757600085556120b5565b82601f1061207857805485556120b5565b828001600101855582156120b557600052602060002091601f016020900482015b828111156120b4578254825591600101919060010190612099565b5b5090506120c291906120c6565b5090565b5b808211156120df5760008160009055506001016120c7565b5090565b6000813590506120f281612b54565b92915050565b60008083601f84011261210a57600080fd5b8235905067ffffffffffffffff81111561212357600080fd5b60208301915083600182028301111561213b57600080fd5b9250929050565b60008135905061215181612b6b565b92915050565b60006020828403121561216957600080fd5b6000612177848285016120e3565b91505092915050565b6000806020838503121561219357600080fd5b600083013567ffffffffffffffff8111156121ad57600080fd5b6121b9858286016120f8565b92509250509250929050565b600080600080604085870312156121db57600080fd5b600085013567ffffffffffffffff8111156121f557600080fd5b612201878288016120f8565b9450945050602085013567ffffffffffffffff81111561222057600080fd5b61222c878288016120f8565b925092505092959194509250565b60008060008060006060868803121561225257600080fd5b600086013567ffffffffffffffff81111561226c57600080fd5b612278888289016120f8565b9550955050602086013567ffffffffffffffff81111561229757600080fd5b6122a3888289016120f8565b935093505060406122b688828901612142565b9150509295509295909350565b6000806000604084860312156122d857600080fd5b600084013567ffffffffffffffff8111156122f257600080fd5b6122fe868287016120f8565b9350935050602061231186828701612142565b9150509250925092565b60006020828403121561232d57600080fd5b600061233b84828501612142565b91505092915050565b60008060006060848603121561235957600080fd5b600061236786828701612142565b935050602061237886828701612142565b925050604061238986828701612142565b9150509250925092565b61239c816129c0565b82525050565b6123ab816129ae565b82525050565b6123ba816129d2565b82525050565b60006123cb826128b1565b6123d581856128bc565b93506123e5818560208601612a08565b6123ee81612b43565b840191505092915050565b60006124066023836128bc565b91507f50726f6475637420616c726561647920736f6c6420746f206120637573746f6d60008301527f65722100000000000000000000000000000000000000000000000000000000006020830152604082019050919050565b600061246c601a836128bc565b91507f55736572206973206e6f742061206d616e7566616374757265720000000000006000830152602082019050919050565b60006124ac601c836128bc565b91507f496e73756666696369656e742077616c6c65742062616c616e636521000000006000830152602082019050919050565b60006124ec6018836128bc565b91507f537570706c69657220616c7265616479206578697374732100000000000000006000830152602082019050919050565b600061252c6018836128bc565b91507f52657461696c657220616c7265616479206578697374732100000000000000006000830152602082019050919050565b600061256c6026836128bc565b91507f4f6e6c792072657469616c65722063616e20706572666f726d2074686973206160008301527f6374696f6e2100000000000000000000000000000000000000000000000000006020830152604082019050919050565b60006125d2601c836128bc565b91507f4d616e75666163747572657220616c72656164792065786973747321000000006000830152602082019050919050565b61260e816129fe565b82525050565b60006020820190506126296000830184612393565b92915050565b600060808201905061264460008301876123a2565b818103602083015261265681866123c0565b90506126656040830185612605565b61267260608301846123b1565b95945050505050565b6000608082019050818103600083015261269581876123c0565b905081810360208301526126a981866123c0565b90506126b86040830185612605565b6126c560608301846123b1565b95945050505050565b600060608201905081810360008301526126e881866123c0565b90506126f76020830185612605565b61270460408301846123b1565b949350505050565b60006020820190508181036000830152612725816123f9565b9050919050565b600060208201905081810360008301526127458161245f565b9050919050565b600060208201905081810360008301526127658161249f565b9050919050565b60006020820190508181036000830152612785816124df565b9050919050565b600060208201905081810360008301526127a58161251f565b9050919050565b600060208201905081810360008301526127c58161255f565b9050919050565b600060208201905081810360008301526127e5816125c5565b9050919050565b60006020820190506128016000830184612605565b92915050565b60006101408201905061281d600083018d612605565b818103602083015261282f818c6123c0565b90508181036040830152612843818b6123c0565b9050612852606083018a612605565b61285f60808301896123a2565b61286c60a08301886123a2565b61287960c08301876123b1565b61288660e08301866123a2565b6128946101008301856123b1565b6128a26101208301846123b1565b9b9a5050505050505050505050565b600081519050919050565b600082825260208201905092915050565b60006128d8826129fe565b91506128e3836129fe565b9250827fffffffffffffffffffffffffffffffffffffffffffffffffffffffffffffffff0382111561291857612917612ab6565b5b828201905092915050565b600061292e826129fe565b9150612939836129fe565b92508261294957612948612ae5565b5b828204905092915050565b600061295f826129fe565b915061296a836129fe565b9250817fffffffffffffffffffffffffffffffffffffffffffffffffffffffffffffffff04831182151516156129a3576129a2612ab6565b5b828202905092915050565b60006129b9826129de565b9050919050565b60006129cb826129de565b9050919050565b60008115159050919050565b600073ffffffffffffffffffffffffffffffffffffffff82169050919050565b6000819050919050565b60005b83811015612a26578082015181840152602081019050612a0b565b83811115612a35576000848401525b50505050565b60006002820490506001821680612a5357607f821691505b60208210811415612a6757612a66612b14565b5b50919050565b6000612a78826129fe565b91507fffffffffffffffffffffffffffffffffffffffffffffffffffffffffffffffff821415612aab57612aaa612ab6565b5b600182019050919050565b7f4e487b7100000000000000000000000000000000000000000000000000000000600052601160045260246000fd5b7f4e487b7100000000000000000000000000000000000000000000000000000000600052601260045260246000fd5b7f4e487b7100000000000000000000000000000000000000000000000000000000600052602260045260246000fd5b6000601f19601f8301169050919050565b612b5d816129ae565b8114612b6857600080fd5b50565b612b74816129fe565b8114612b7f57600080fd5b5056fea2646970667358221220d8713bcf889ae2137632a76ab999d883035ad7bbdf0aec9f09dfd573b07ed4be64736f6c63430008000033",
  "immutableReferences": {},
  "source": "// SPDX-License-Identifier: MIT\npragma solidity ^0.8.0;\n\n// import \"@openzeppelin/contracts/utils/Strings.sol\";\n\ncontract supply {\n\n    address payable public admin;\n\n    constructor() {\n        admin = payable(msg.sender);\n    }\n\n    struct prod {\n        uint256 ID;\n        string name;\n        string desc;\n        uint256 price;\n        address manufacturer;\n        address supplier;\n        bool isSupplier;\n        address retailer;\n        bool isRetailer;\n        // address currentlyHeldBy;\n        bool isSold;\n    }\n\n    struct man {\n        string name;\n        // mapping(uint256 => prod) prodList;\n        uint256 numOfProdsMade;\n        bool isMan;\n    }\n\n    mapping(address => man) public mapMan;\n    mapping(uint256 => prod) public prodList;\n    uint256 public prodCount=0;\n\n    function createMan(string calldata name) public {\n        require(!mapMan[msg.sender].isMan, \"Manufacturer already exists!\");\n        man storage m = mapMan[msg.sender];\n        m.name = name;\n        m.numOfProdsMade = 0;\n        m.isMan = true;\n\n        // p.prodList[0] = prod(\"NoID\", \"placeholder\", \"noDesc\", 0);\n        // mapMan[msg.sender] = man(name, prod(), 0, true);\n    }\n\n    function addProd(\n        string calldata name,\n        string calldata desc,\n        uint256 price\n    ) public {\n        require(mapMan[msg.sender].isMan, \"User is not a manufacturer\");\n        uint256 prodID = mapMan[msg.sender].numOfProdsMade;\n        // string(abi.encodePacked(msg.sender))\n        uint256 ID = prodID;\n        // mapMan[msg.sender].prodList[prodID] = (prod(ID, name, desc, price));\n        prodList[prodCount] = prod(ID, name, desc, price, msg.sender, admin, false, admin, false, false);\n        prodCount++;\n        mapMan[msg.sender].numOfProdsMade++;\n    }\n\n    struct supplier {\n        address addr;\n        string name;\n        uint256 percentCharged;\n        bool isSup;\n    }\n\n    uint256 public supplyCount = 0;\n    mapping(address => supplier) public mapSup;\n    mapping(uint256 => supplier) public supList;\n\n    function createSupplier(string calldata name, uint256 percentCharged) public {\n        require(!mapSup[msg.sender].isSup, \"Supplier already exists!\");\n        supplier memory s = supplier(msg.sender, name, percentCharged, true);\n        mapSup[msg.sender]=s;\n        supList[supplyCount]=s;\n        supplyCount++;\n    }\n\n    struct retailer{\n        string name;\n        string desc;\n        mapping(uint256 => prod) prodList;\n        uint256 heldCount;\n        bool isRet;\n    }\n\n    mapping(address => retailer) public mapRet;\n    mapping(uint256 => prod) public isWithRetailer;\n    uint256 public retailedProdCount = 0;\n\n    function createRetailer(string calldata name, string calldata desc) public {\n        require(!mapRet[msg.sender].isRet, \"Retailer already exists!\");\n        retailer storage p = mapRet[msg.sender];\n        p.name = name;\n        p.desc = desc;\n        p.heldCount = 1;\n        p.isRet = true;\n\n        p.prodList[0] = prod(0, \"DUM\", \"DUM\", 0, admin, admin, false, admin, false, false);\n    }\n\n    function retBuyProd(uint256 prodID, uint256 supplyID, uint256 retailPrice) public payable {\n        require(!prodList[prodID].isSold, \"Product already sold to a customer!\");\n        require(mapRet[msg.sender].isRet, \"Only retialer can perform this action!\");\n\n        prod storage product = prodList[prodID];\n        supplier storage sup = supList[supplyID];\n\n        uint256 priceForRetailer = product.price + (product.price * sup.percentCharged/100);\n        require(priceForRetailer <= msg.value, \"Insufficient wallet balance!\");\n        payable(product.manufacturer).transfer(product.price);\n        payable(sup.addr).transfer((product.price * sup.percentCharged/100));\n        product.supplier=sup.addr;\n        product.isSupplier=true;\n        product.retailer=msg.sender;\n        product.isRetailer=true;\n        // product.currentltyHeldBy = product.retailer;\n        product.price=retailPrice;\n        isWithRetailer[retailedProdCount] = product;\n        retailedProdCount++;\n    }\n\n    function buy(uint prodID) public payable {\n        prod storage product = isWithRetailer[prodID];\n        require(!prodList[prodID].isSold, \"Product already sold to a customer!\");\n        require(product.price <= msg.value, \"Insufficient wallet balance!\");\n        payable(product.retailer).transfer(product.price);\n        product.isSold = true;\n    }\n\n}\n",
  "sourcePath": "C:\\Users\\sadhu\\Documents\\GitHub\\SupplyCoin\\contracts\\supply.sol",
  "compiler": {
    "name": "solc",
    "version": "0.8.0+commit.c7dfd78e.Emscripten.clang"
  },
  "schemaVersion": "3.4.15",
  "updatedAt": "2023-11-07T05:13:02.612Z",
  "devdoc": {
    "kind": "dev",
    "methods": {},
    "version": 1
  },
  "userdoc": {
    "kind": "user",
    "methods": {},
    "version": 1
  }
}